:020000040800F2
:100000005809002001440008D1140008D314000846
:10001000D7140008DB140008DF14000800000000FB
:10002000000000000000000000000000E3140008D1
:10003000E514000800000000E7140008011400089F
:100040001B4400081B4400081B4400081B44000814
:100050001B4400081B4400081B4400081B44000804
:100060001B44000869140008831400089D1400084C
:100070001B440008571400081B4400081B440008D8
:100080001B4400081B440008000000001514000871
:100090001B4400081B4400081B4400081B440008C4
:1000A0001B4400081B4400081B4400081B440008B4
:1000B0001B440008000000001B4400080000000072
:1000C0001B440008000000001B4400081B440008FB
:1000D0001B4400081B4400081B44000800000000EB
:1000E00000000000000000001B4400081B44000842
:1000F0001B4400081B4400081B4400081B44000864
:100100001B44000800000000000000001B44000821
:1001100000000000000000000000000000000000DF
:1001200000000000000000000000000000000000CF
:1001300000000000000000000000000000000000BF
:1001400000000000000000000000000000000000AF
:1001500000000000000000001B4400081B440008D1
:100160001B4400081B44000800F002F800F03AF8B5
:100170000AA090E8000C82448344AAF10107DA4502
:1001800001D100F02FF8AFF2090EBAE80F0013F01A
:10019000010F18BFFB1A43F0010318478C580000E9
:1001A000AC580000103A24BF78C878C1FAD852077A
:1001B00024BF30C830C144BF04680C6070470000E1
:1001C0000023002400250026103A28BF78C1FBD860
:1001D000520728BF30C148BF0B6070471FB51FBD15
:1001E00010B510BD04F025FA1146FFF7F7FF00F037
:1001F0006EF804F043FA03B4FFF7F2FF03BC04F017
:100200004BFA00001CB500240020FD49087005E0F1
:10021000FC490C700A2001F051F9641C082CF7DB32
:100220000020F84908700090034601220146019021
:1002300001F06CFAF44803F0BBFD002000F016FB5F
:10024000002000F016FB00220421F04802F08EF995
:1002500001E002F097F8FCE710B50446B4F5004F52
:1002600001D1012000E0002002464FF400414FF090
:10027000904002F07BF9B4F5805F01D1012000E0ED
:10028000002002464FF480514FF0904002F06EF98A
:10029000082C01D1012000E0002002460821DB48A3
:1002A00002F064F910BD01280BD1D949096811F198
:1002B000320F06DA0521D34A11700421D04A117099
:1002C00004E00021CF4A1170CD4A1170704794B0FC
:1002D0000020129011900124109081464FF0080BDD
:1002E0000F900E9082460D900C900B900A9004F0A7
:1002F0001BF9C84800686422B0FBF2F1481EB0F157
:10030000807F00D31BE0481E4FF0E0225061501761
:100310000F22002804DB13071D0EBF4B1D5406E0FF
:1003200013071E0EBD4B00F00F052D1F5E5500BFBD
:1003300000204FF0E02290610720106100BF00F024
:100340007DFC08B900BFFEE700F072FC00F091FCF4
:1003500000F0B7FC01220421AC4802F007F900F0DC
:100360007CFF00F012FF00F04EFE02F00BF800F0F0
:10037000D2FF09E0A34981F800B00A2001F09EF8FD
:10038000ABF101004FFA80FBBBF1000FF2DA002065
:100390009C49087001E001F0F5FF4FF40041A048CE
:1003A00002F0EBF80028F6D144E29E480068401CB9
:1003B0009C4908600846007800F0010008B901F087
:1003C000DBF89348006804F0E1FB00221346CDE916
:1003D000000104F0F3FB03D28D480068404201E0C5
:1003E0008B480068039004F0DBFF0021049005F0C7
:1003F00035F9059004F03CFE074600228A4B04F0D4
:1004000019FC0022894BCDE9060104F067FA0022AD
:10041000874BCDE9080104F0ADF9054604F078F901
:100420000C907B480068322806DA7948006810F1A1
:10043000320F01DD002011E075480068B0F57A7FC9
:1004400002DD4FF47A7008E07148006810F57A7F99
:1004500001DA784801E06E48006840420FFA80FAFD
:1004600075480068322806DA7348006810F1320FC8
:1004700001DD002017E070490968B1F57A7F02DDDF
:100480004FF47A7108E06C49096811F57A7F01DA56
:10049000684901E068490968084604F081FF06469A
:1004A0000C9904F0DDFF054604F03EFF00B20D900C
:1004B0000D9804F075FF8046604905F0CFF80746B7
:1004C0005F4904F0CDFF06465E4904F06BFE054629
:1004D0005D4904F0F9FD0B900B9804F041FF80B2E8
:1004E0005A4951F820000A9059490B9805F084F8B0
:1004F0003AD8BAF57A7F02DD4FF47A7005E01AF542
:100500007A7F01DA4B4800E050460F900F9804F0D4
:1005100047FF07460A9904F045FE06464D4905F097
:100520006BF801D24B4814E00F9804F039FF0746EE
:100530000A9904F037FE0646404904F05DFF01D2F7
:100540003E4806E00F9804F02BFF06460A9904F097
:1005500029FE054604F0E8FE00B20E904FF49670B6
:100560000E9040420F9039E0BAF57A7F02DD4FF4E9
:100570007A7005E01AF57A7F01DA2E4800E05046DD
:100580000E904FF496700E900E9804F009FF0746F7
:100590000A9904F065FF06462E4905F02DF801D2B0
:1005A0002C4814E00E9804F0FBFE07460A9904F06C
:1005B00057FF0646214904F01FFF01D21F4806E0FD
:1005C0000E9804F0EDFE06460A9904F049FF054630
:1005D00004F0AAFE00B20F901F480F9001211F489F
:1005E00001F0CBFF04461294129800F03FF9129CE0
:1005F000012C37D11A48007808B9012033E031E0E6
:10060000360000203500002000440040000400486F
:10061000040000206400002000E400E018ED00E089
:1006200000080048100000200000E0BF00408F409C
:100630000000F03F18FCFFFF0000002000007AC41B
:10064000000034C30000FA44000034434857000857
:100650000000B44200007A44D4FEFFFF00140048BA
:100660005000002000201190B9F1000F06D0B9F120
:10067000010F0ED0B9F1020F21D115E06E496F487C
:10068000006804F0EDFE054604F04EFE00B2109046
:1006900016E069496A48006804F0E2FE054604F085
:1006A00043FE00B210900BE063496648006804F016
:1006B000D7FE054604F038FE00B2109000E000BFFF
:1006C00000BF0E9800F0D5F8109823460022CDE91F
:1006D00000900F98404200B2119901F017F809F10B
:1006E000010000F0FF09B9F1020F01DD4FF0000930
:1006F0005348006804F0BCFC05460022524B04F04D
:1007000097FB08D24FF40040FFF7A6FD4F48007852
:10071000FFF7C9FD4AE04A48006804F0A9FC054615
:1007200000224B4B04F084FB14D24548006804F0CF
:100730009FFC05460022444B04F040FA0AD24FF4D5
:100740008050FFF789FD0520424908700820424982
:1007500008702BE03A48006804F08AFC0546002245
:100760003E4B04F065FB13D23548006804F080FC72
:1007700005460022364B04F021FA09D20820FFF783
:100780006BFD0520334908700120334908700DE0E6
:100790002B48006804F06CFC054600222F4B04F047
:1007A0000DFA01D2FFF72EFDFFF72CFD4FF40041AB
:1007B0002B4801F0E2FE48B100BF4FF40041284849
:1007C00001F0DBFE0028F8D1FFF71CFD0E9804F0C5
:1007D000DDF905460022134604F0F0F902D20E9826
:1007E000404200E00E9832280FDC0F9804F0CEF95A
:1007F00005460022134604F0E1F902D20F98404268
:1008000000E00F98322800DC1CB900201549086070
:1008100004E014480068401C124908601148006850
:100820001149884201D9FFF7EDFC052000F046FE92
:1008300001F0A8FDB9E500000000C8421800002042
:10084000140000201C00002000804140090000200E
:1008500000804040350000203600002000003F406E
:10086000000800480C00002080380100CB490870C7
:100870007047B0F57A7F02DD4FF47A7105E010F52C
:100880007A7F01DAC64900E00146C64A1180704706
:100890002DE9F04F87B00020069005900490C248E3
:1008A000B0F90000B0F57A7F14DABF480088401C28
:1008B00000B2BD490880BD494988BD4AB2F900204F
:1008C000881800EBD071491009B2B94A118007B0FD
:1008D000BDE8F08FB7480088642190FBF1F201FB7E
:1008E000120028BBB149088804F072FD019004F0A1
:1008F000BFFB06460022B04B04F09CF90446AF4A09
:10090000AF4B04F097F9CDE90201AE48006804F05E
:10091000AFFB0446AC4AAD4B04F08CF98046DDE9F0
:10092000022303F027FF824603F0F2FEA549086088
:10093000A0480088401C9F490880A548007830B333
:100940000846008841F2883190FBF1F1A148007817
:10095000401C91FBF0F200FB1210C0B995480088D2
:100960009B49097890FBF1F201FB1200A8B99A4863
:10097000007808B9012000E0002097490870084677
:1009800002784FF48061954801F0F0FD05E0002207
:100990004FF48061914801F0E9FD84494988844A17
:1009A000B2F90020881A04F0F1F880468C4A8D4B89
:1009B00004F040F906460022134604F0FFF80FD277
:1009C0007A4949887A4AB2F90020881A04F0DEF898
:1009D0000646834A834B04F02DF981F000410CE078
:1009E00072494988724AB2F90020881A04F0CEF898
:1009F00006467B4A7B4B04F01DF9044603F088FE53
:100A00007949086079497848006804F0F5FD06D313
:100A10006248007818B176480078012803D17548FB
:100A200002F080FC02E0734802F077FC4FF40061B2
:100A30006A4801F0A2FD7049087002216F4801F078
:100A40009CFD6F4908704FF480416E4801F095FDA0
:100A50006D490870684800786949097800EB4101E0
:100A60006948007801EB8000684908706848097897
:100A7000405C6849087068480068A0EB203049492C
:100A8000B1F9001008446449086008460068001382
:100A900000B26249088004A805AB06AA00905D4830
:100AA00001785E48B0F9000003F0FDFD049800F203
:100AB0006540B0F50C6F02DD4FF40C6009E004985E
:100AC00000F265400A2801DA0A2002E0049800F2E8
:100AD000654002460221474802F08CFD059800F26D
:100AE0006540B0F50C6F02DD4FF40C6009E005982D
:100AF00000F265400A2801DA0A2002E0059800F2B7
:100B00006540024601213B4802F074FD069800F260
:100B10006540B0F50C6F02DD4FF40C6009E00698FB
:100B200000F265400A2801DA0A2002E0069800F285
:100B30006540024600212F4802F05CFD38480068FD
:100B4000B0F57A6F04D236480068401C344908601A
:100B500034480078012812D02E48007801280ED1A0
:100B60002F48006804F034FC044621462E4804F067
:100B700019FB2E49086000202949086007E0284831
:100B80000068B0F57A6F02D3002028490860214838
:100B900000782449087000BF99E600002200002078
:100BA00018FCFFFF200000203A0000202400002055
:100BB0003C0000203800002000C0983FFCA9F1D282
:100BC0004D62503F140000202B8716D9CEF7EF3F1F
:100BD00035000020360000203400002000040048CA
:100BE0003F80C9999CC9C93F18000020000070418E
:100BF00050000020002C0140280000200014004874
:100C000029000020000800482A0000202B000020B6
:100C10001E5A00082C000020300000202E0000206A
:100C2000400000202D000020ECF9F8441C000020BA
:100C300010B54FF4407001F0F5FC10BD10B540F652
:100C40001D1001F0F1FE08B101F0FDFE022140F699
:100C5000FF7001F0BCFB012805D140F6FF7001F0E8
:100C60009BFB012801D0002010BD01F090FB01206A
:100C7000FAE710B54FF4E16001F09EFDFE4802F086
:100C8000B7F90020FD49888008802020488048F678
:100C9000A04088600020C8800873F74802F076FA08
:100CA000F649F54802F018FA00221146132001F027
:100CB000BEFC0121F04802F0C7FAEF4802F057FAF3
:100CC00010BD10B540F2115001F076FD40F2125007
:100CD00001F072FD40F2135001F06EFD40F216502B
:100CE00001F06AFD4FF40043002201214FF09040D3
:100CF00001F0F0FB4FF40043012200214FF090403F
:100D000001F00FFC082300220121DD4801F0E2FB85
:100D1000082301220021DA4801F003FC4FF480533C
:100D2000002201214FF0904001F0D4FB4FF480539A
:100D3000012200214FF0904001F0F3FB022300223A
:100D400001214FF0904001F0C5FB02230122002158
:100D50004FF0904001F0E5FB0123002219464FF0CF
:100D6000904001F0B7FB01231A4600214FF090405C
:100D700001F0D7FB4FF4005300220121C14801F0DC
:100D8000A9FB4FF4005303220021BE4801F0C9FB28
:100D90004FF4006300221146B94801F09BFB022387
:100DA00000221146B84801F095FB4FF48043002221
:100DB0001146B44801F08EFB0423012202214FF0BA
:100DC000904001F087FB0823012202214FF0904060
:100DD00001F080FB0423032200214FF0904001F03A
:100DE000A0FB0823032200214FF0904001F099FB63
:100DF000042201214FF0904001F0D7FB082201218D
:100E00004FF0904001F0D1FB1023002203214FF05E
:100E1000904001F05FFB4023002203214FF09040FF
:100E200001F058FB4023002203214FF0904001F0D5
:100E300051FB012300220321914801F04BFB1023B9
:100E4000002201218E4801F045FB102303220021DE
:100E50008B4801F066FB4FF4805300220221884842
:100E600001F038FB4FF480520221854801F09DFBD0
:100E70004FF48063002202214FF0904001F02AFBE2
:100E80004FF40073002202214FF0904001F022FB4A
:100E90004FF48073002202214FF0904001F01AFBC2
:100EA0004FF4004300220221754801F013FB4FF478
:100EB000804300220221724801F00CFB4FF40053E2
:100EC000002202216E4801F005FB4FF480630022EE
:100ED00011464FF0904001F024FB4FF400730022C4
:100EE00011464FF0904001F01CFB4FF4807300223C
:100EF00011464FF0904001F014FB4FF400430022E4
:100F000011465F4801F00DFB4FF48043002211466B
:100F10005B4801F006FB4FF400530022114658488D
:100F200001F0FFFA4FF4806202214FF0904001F08F
:100F30003CFB4FF4007202214FF0904001F035FB72
:100F40004FF4807202214FF0904001F02EFB4FF4DD
:100F5000004202214A4801F028FB4FF4804202215E
:100F6000474801F022FB4FF400520221444801F0AF
:100F70001CFB042300220121414801F0ABFA0423A9
:100F8000012200213E4801F0CCFA40230122022137
:100F90003B4801F09FFA802301220221384801F0EA
:100FA00099FA402303220021354801F0BAFA802340
:100FB00003220021324801F0B4FA402200213048D7
:100FC00001F0F3FA802200212D4801F0EEFA4FF4EF
:100FD0008063002201212A4801F07CFA4FF48063EB
:100FE00003220021264801F09CFA4FF4004300221E
:100FF0001146244801F06EFA01231A4600212248C6
:1010000001F068FA10BD10B540F20B6001F0D4FB9E
:101010001E4801F0EDFF00201D4988800880202037
:10102000488040F6CA0088600020C88008731748CE
:1010300002F0ACF81649154802F04EF800220221E1
:10104000124802F017FB00220121104802F012FBA7
:10105000002211460D4802F00DFB002202210B4830
:1010600002F0DBFA00220121084802F0D6FA002241
:10107000114606480EE000000020004068000020F5
:10108000000400480008004800140048002C0140FB
:101090007800002002F0C1FA70220221CD4802F04F
:1010A0007CFA70220121CB4802F077FA70220021ED
:1010B000C84802F072FA00220221C64802F09AFAE9
:1010C00000220121C34802F095FA00221146C148CE
:1010D00002F090FA0020C049C88008200881002052
:1010E00048814FF4007088810A460221B94802F015
:1010F0004BF9B94A0121B74802F046F9B64A002136
:10110000B44802F041F94FF40060B449086000208F
:10111000486008613C2008814FF4805048610020FD
:1011200048814FF48040C860AA4802F0DDF8A94821
:1011300002F022F801220221A64802F051FB01220E
:101140001146A44802F04CFB01220021A14802F004
:1011500047FB042202219F4802F070FB0422012178
:101160009C4802F06BFB042200219A4802F066FBC7
:10117000002211460D2001F05AFA0121954802F093
:1011800063F8944801F0F3FF10BD10B540F2096018
:1011900001F012FB4FF4A06001F00EFB032001F000
:1011A0009EFB00220121092001F041FA002000F0FD
:1011B0007FFE00208A4988618A48C8600020486113
:1011C0004FF4806008610220C861874808600120F0
:1011D0008860000248604FF440500862002000F030
:1011E000A2FE002000F023FF002000F04DFF0221AE
:1011F000002001F08DF80221002000F080FF002087
:1012000000F051FF0221012000F0EAFB022204213C
:10121000002000F016FC02220621012000F011FC43
:10122000002000F0CEFB0121084600F0D3FC4FF473
:101230006021012000F0FAFC00F037FB00F043FBD6
:1012400000F01DFE00F0EEFA00F0FFFA00F018FBCF
:101250000121080200F074FB10BD10B540F21170BE
:1012600001F0AAFA4FF4A06001F0A6FA4FF4E131C0
:101270005E4802F0BAFD00215C4802F0F2FD002158
:101280005A4802F0FAFD0021584802F002FE0021FF
:10129000564802F084FE0821544802F010FE042152
:1012A000524802F014FE514802F0FFFD00220221D4
:1012B0000B2001F0BCF9042000F0FAFD00204C499D
:1012C00088614C48C8600020486108610120C861FD
:1012D00046482430086001208860002048604FF4B0
:1012E00040500862042000F01EFE042000F09FFE23
:1012F000042000F0C9FE40213C4802F0EBFF02212F
:10130000042001F005F80121042000F0F8FE04207B
:1013100000F0C9FE10BD10B540F20E6001F04CFAAD
:101320004FF4A06001F048FA4FF49641324802F0C1
:101330005CFD0021304802F094FD00212E4802F0AF
:101340009CFD00212C4802F0A4FD00212A4802F057
:1013500026FE0821284802F0B2FD0421264802F0AA
:10136000B6FD254802F0A1FD002202210A2001F06D
:101370005EF9022000F09CFD00201D4988611F4895
:10138000C8600020486108610120C8611A48243003
:10139000086001208860002048604FF440500862D7
:1013A000022000F0C0FD022000F041FE022000F00B
:1013B0006BFE4021104802F08DFF0221084600F02C
:1013C000A7FF0121022000F09AFE022000F06BFE30
:1013D00010BD0000002C0140A0000020880000206B
:1013E000D4000020240000204C2401400044004090
:1013F000B0000020440000200038014045000020DB
:1014000039480068401C3849086070470020374957
:101410000860704710B535480068B0F5FA6F0DD90F
:101420003348007830B900203249086032490860FA
:101430003249087001202E49087007E000202C492D
:1014400008702A480068401C2849086001212C487F
:1014500001F00EFF10BD10B5012000F005FC0121C8
:10146000284801F005FF10BD10B5FFF711FA022161
:10147000002000F0E2FE18B10221002000F03FFF42
:1014800010BD10B50221084600F0D7FE28B100F0CB
:10149000AEF80221084600F032FF10BD10B502215F
:1014A000042000F0CAFE28B100F00DF9022104204A
:1014B00000F025FF10BD0C48006870470A4A11680B
:1014C00000E000BF084A1268521A8242F9D37047FE
:1014D000704700BFFEE700BFFEE700BFFEE700BFAA
:1014E000FEE7704770477047480000204C0000201E
:1014F000500000200000002004000020090000200F
:1015000000200040002C01402DE9F04107460D4627
:10151000164600240DE0295D384602F0E0FC00BFCD
:1015200040F20671384602F00FFF0028F8D0601C28
:10153000C4B2B442EFDBBDE8F08130B50246002012
:1015400016E012F8015B80EA0520082300BF00F4D2
:1015500000442CB141F2210484EA4004A0B203E02B
:101560004FF6FF7404EA40005C1EE4B2231EEED185
:101570004C1E211EE5DA30BD38B500242F2220464E
:10158000641C0DF800200A222046641C0DF800207F
:10159000224669462748FFF7B7FF38BD70B50446B5
:1015A00020782F2802D1E0790A2800D070BD0521CB
:1015B0002046FFF7C2FF05466079B0EB152F03D137
:1015C000A079E9B2884200D0F0E7A078617840EADB
:1015D000012000B2184908602079E17840EA012032
:1015E00000B216490860FFF711FF00BFDEE710B533
:1015F000134804782F2C05D10020124908700120CF
:10160000114908701048007898B110480D490978C0
:1016100044540C480078401C0A4908700846007879
:10162000082806DB00200870074908700748FFF704
:10163000B5FF10BD0038014004000020000000206C
:10164000450000205A0000205100002052000020D8
:101650002DE9F04704460027B846B94620782F28E0
:1016600002D120790A2801D0BDE8F0870221204666
:10167000FFF763FF0646A078B0EB162F03D1E078A2
:10168000F1B2884200D0EFE76578C5F3C000584951
:101690000870C5F38009C5F3400805F001074A4604
:1016A0004FF40051534800F061FF3A4602214FF0D9
:1016B000904000F05BFF424601214FF0904000F067
:1016C00055FF00BFD0E710B54B4804782F2C05D14B
:1016D00000204A49087001204949087048480078AC
:1016E00098B1484845490978445444480078401C1A
:1016F0004249087008460078052806DB002008707B
:101700003F4908703F48FFF7A3FF10BD2DE9FF4F89
:1017100085B00646894692460024A346B6F57A7FF0
:1017200002DD4FF47A7005E016F57A7F01DA36486B
:1017300000E030460190019887B213981FFA80F8B4
:10174000002545EACA10C5B200BF00BF00BF00BFF8
:1017500000BF089845EA4000C5B245EA09052F22B6
:101760002046611CCCB202A90A543A0A2046611CE8
:10177000CCB202A90A542046611CCCB202A90F5473
:101780002146621CD4B202AA129850544FEA182281
:101790002046611CCCB202A90A542046611CCCB27E
:1017A00002A901F800802046611CCCB202A90D54A8
:1017B000214602A8FFF7C1FE83464FEA1B222046BE
:1017C000611CCCB202A90A542046611CCCB202A909
:1017D00001F800B00A222046611CCCB202A90A54CA
:1017E00022460A48FFF790FE09B0BDE8F08F0000DE
:1017F000090000200008004844000020610000208B
:101800005B0000205C00002018FCFFFF004400404B
:1018100010B540F2093001F007F840F2093001F04C
:1018200011F810BDFE48006800F0010028B9FC481E
:10183000006840F00100FA4908607047F848006805
:1018400020F00100F64908607047F548006840F054
:101850000800F349086000BFF148006800F0080084
:101860000028F9D1EE48006840F00400EC49086017
:1018700000BFEB48006800F004000028F9D1704771
:10188000E748006840F48070E54908607047E44824
:10189000006820F48070E24908607047E048006802
:1018A00040F40000DE4908607047DD48006820F41D
:1018B0000000DB4908607047D948006840F080703C
:1018C000D74908607047D648006820F08070D44936
:1018D0000860704710B5D24A121F126822F4C05235
:1018E000CF4B1B1F1A60012804D002281BD00428EC
:1018F00022D122E0CA4A121F126822F46042C84B69
:101900001B1F1A601A4612684B1E4FF4604404EA0B
:1019100043331A43C24B1B1F1A601A46126842F423
:1019200000621A600AE0BE4A121F126842F4805236
:10193000BB4B1B1F1A6001E000BF00BF00BF10BD02
:10194000F9B100F480723AB1B54A121F126842F43C
:101950008072B34B1B1F1A6000F480623AB1B04A28
:10196000121F126842F48062AD4B1B1F1A6000F018
:1019700002022AB3AA4A126842F00202A84B1A6075
:101980001EE000F480723AB1A54A121F126822F4D8
:101990008072A34B1B1F1A6000F480623AB1A04A08
:1019A000121F126822F480629D4B1B1F1A6000F008
:1019B00002022AB19A4A126822F00202984B1A6077
:1019C000704730B19649096841F40061944A11604A
:1019D00005E09349096821F40061914A116070475C
:1019E00010B5012802D0022828D113E08C4A2432F5
:1019F000126822F470028A4B24331A601A46126865
:101A00004B1E4FF4700404EA03531A43844B2433EF
:101A10001A6014E0824A3032126822F44012804B7D
:101A200030331A601A4612684B1E4FF4401404EA11
:101A300003531A437A4B30331A6000E000BF00BFF3
:101A400010BD70B51446122900D10021062810D20D
:101A5000734D2C352A6800EB80061F25B540AA433C
:101A600000EB800501FA05F52A436D4D2C352A60FF
:101A70002AE00C2812D26A4D28352A68851F05EB0A
:101A800085061F25B540AA43851F05EB850501FA8C
:101A900005F52A43624D28352A6015E0102813D237
:101AA0005F4D24352A68A0F10C0505EB85061F253E
:101AB000B540AA43A0F10C0505EB850501FA05F533
:101AC0002A43574D24352A600A2910D2544D08352F
:101AD0002B6801EB41060725B540AB4301EB4105FF
:101AE00004FA05F52B434E4D08352B6015E01229FD
:101AF00013D24B4D2D1D2B68A1F10A0505EB4506B0
:101B00000725B540AB43A1F10A0505EB450504FAED
:101B100005F52B43424D2D1D2B6070BDF0B50346DE
:101B20003F4E30363668C6F301553D4E3036346888
:101B3000EE1A06EB8606C6F10F071F26BE40B44319
:101B4000EE1A06EB8606C6F10F0601FA06F63443D6
:101B5000334E303634600A2910D2314E08363068A0
:101B600001EB41070726BE40B04301EB410602FAF4
:101B700006F630432A4E0836306015E0132913D29A
:101B8000274E361D3068A1F10A0606EB46070726E8
:101B9000BE40B043A1F10A0606EB460602FA06F67D
:101BA00030431F4E361D3060F0BD30B50246002078
:101BB0001B4C30342468C4F301539C1AC4F1030055
:101BC000032806D88000C1F30B04164D0544C5F860
:101BD000144430BD91B100F001022AB1104A1268DC
:101BE00042F480120E4B1A6000F00202EAB10C4A75
:101BF000126842F400420A4B1A6016E000F001023B
:101C00002AB1074A126822F48012054B1A6000F0CC
:101C1000020252B1024A126822F40042004B03E071
:101C200008240140002001401A607047012802D0BA
:101C3000022816D10AE09B4A126822F46022994BCE
:101C40001A601A4612680A431A600BE0954A126835
:101C500022F4E042934B1A601A4612680A431A6053
:101C600000E000BF00BF704700F0010129B18D49BD
:101C7000096841F480018B4A116000F0020129B12A
:101C80008849096841F40011864A11607047854807
:101C90004430006880B27047024632B1012A08D051
:101CA000022A0AD0032A10D10BE07E4834300168A2
:101CB0000DE07C483830016809E07A483C30016822
:101CC00005E078484030016801E0002100BF00BF16
:101CD00088B2704701460020724A083A12680A40EA
:101CE00002B1012070476F490839096881436D4A84
:101CF000083A1160704702460020012A04D0022AE7
:101D000010D0042A2AD11BE0664B083B1B6803F065
:101D10000101644B1B1F1B6803F040030BB101B1B1
:101D200001201CE05F4B083B1B6803F002015D4B88
:101D30001B1F1B6803F020030BB101B101200EE053
:101D4000584B083B1B6803F00401564B1B1F1B68D4
:101D500003F080030BB101B1012000E000BF00BF20
:101D6000704750490839096881434E4A083A116062
:101D7000704700F0010139B14A49091F096841F073
:101D80004001484A121F116000F0020139B1454973
:101D9000091F096841F02001424A121F116000F03A
:101DA000040139B13F49091F096841F080013D4AEA
:101DB000121F1160704700F0010139B13949091F44
:101DC000096821F04001374A121F116000F002013A
:101DD00039B13449091F096821F02001314A121F25
:101DE000116000F0040139B12E49091F096821F082
:101DF00080012C4A121F116070472A49091F096887
:101E0000294A1140274A121F1160114609680143EF
:101E1000116011460968254A1143224A121F1160B8
:101E200070472049091F09681F4A1F3211401D4A87
:101E3000121F1160012804D002280BD003281BD1E7
:101E400011E01849091F096841F40001154A121FE1
:101E5000116012E01349091F096841F48001114A19
:101E6000121F116009E00F49091F096841F4400180
:101E70000C4A121F116000E000BF00BF7047094804
:101E8000001F0068084908400649091F086070479C
:101E9000C0F30B02034B20331A60C1F30B021B1F6C
:101EA0001A60704708240140E0FD3FFF0002C000B7
:101EB00000EB8001FA4A02EB8101896821F00101FF
:101EC00000EB8002F64B03EB82029160002100EBF5
:101ED000800203EB8202916000EB800203EB82023E
:101EE000D16000EB800203EB8202116100EB800203
:101EF00003EB820251611946496883000F229A4020
:101F00001143E74A5160704700210160416001219F
:101F100081600021C1600161012141610021816175
:101F2000C1610162704730B500EB8004DC4D05EB08
:101F300084040B68236100EB800405EB8404CB6808
:101F4000636100EB800405EB8404CB69E36000EB84
:101F500080032C4604EB83039A6822F47C520C69BC
:101F60004B6823430C6A23431A4300EB80032C463F
:101F700004EB83039A608B6863B900EB800304EB86
:101F800083039B6843F0400300EB800405EB84046B
:101F9000A3600DE000EB8003C14C04EB83039B685E
:101FA00023F0400300EB8004BD4D05EB8404A360E7
:101FB0004B6973B900EB8003B94C04EB83039B6856
:101FC00043F0800300EB8004B54D05EB8404A3606F
:101FD0000DE000EB8003B24C04EB83039B6823F01D
:101FE000800300EB8004AE4D05EB8404A3608B6995
:101FF00073B900EB8003AA4C04EB83039B6823F0C6
:10200000100300EB8004A64D05EB8404A3600DE0F3
:1020100000EB8003A24C04EB83039B6843F01003A6
:1020200000EB80049E4D05EB8404A36030BD00EB03
:1020300080019B4A02EB8101896841F0200100EB9D
:102040008002974B03EB82029160704700EB8001A6
:10205000934A02EB8101896821F0200100EB8002A4
:102060008F4B03EB82029160704700EB80018C4A3A
:1020700002EB8101896841F4804100EB8002884BCA
:1020800003EB82029160704700EB8001844A02EB0F
:102090008101896821F4804100EB8002804B03EBD1
:1020A00082029160704700EB80017D4A02EB810162
:1020B000896841F0010100EB8002794B03EB820259
:1020C0009160704700EB8001754A02EB81018968DD
:1020D00021F0010100EB8002714B03EB8202916061
:1020E000704700EB80026E4B03EB82021161704778
:1020F00000EB80026A4B03EB82025161704700EBF8
:102100008002674B03EB8202D1607047014601EB0E
:102110008100634A02EB8000C068704710B50A4630
:1021200000EB80035E4C04EB8303996821F440517B
:10213000114300EB800304EB8303996010BD10B5DD
:102140000A4600EB8003564C04EB8303996821F4A4
:102150004061114300EB800304EB8303996010BDE1
:1021600010B50A4600EB80034D4C04EB83039968DD
:1021700021F44071114300EB800304EB8303996069
:1021800010BD00EB8001464A02EB8101896841F0F5
:10219000800100EB8002424B03EB820291607047AA
:1021A00000EB80013E4A02EB8101896821F0800149
:1021B00000EB80023A4B03EB82029160704700EB28
:1021C0008001374A02EB8101896841F0400100EB50
:1021D0008002334B03EB82029160704700EB800179
:1021E0002F4A02EB8101896821F0400100EB800257
:1021F0002B4B03EB82029160704710B571B900EB75
:102200008002274B03EB8202926822F0100200EB5F
:102210008003234C04EB83039A600DE000EB800203
:102220001F4B03EB8202926842F0100200EB800326
:102230001B4C04EB83039A6010BDF0B502460023EB
:1022400000240F250E2601293ED0022904D004299E
:1022500014D008294AD125E011480068970001FAF6
:1022600007F700EA07049000C44002EB82000C4F1D
:1022700007EB8000806800F0020338E0084800683F
:10228000970001FA07F700EA07049000C44002EB48
:102290008200034F07EB8000806800F0040326E013
:1022A0000000024034480068970001FA07F700EA8E
:1022B00007049000C44002EB82002F4F07EB800020
:1022C000806800F0080312E02B480068970005FAC8
:1022D00007F700EA07049000C44002EB8200264F93
:1022E00007EB8000806800EA060300E000BF00BF43
:1022F00004EA030008B10120F0BD0020FCE71E4AFB
:102300005268830001FA03F31A431B4B5A6070476B
:1023100010B500EB8002184B03EB820292680A436F
:1023200000EB8003144C04EB83039A6010BD10B5DE
:1023300000EB8002104B03EB820292688A4300EBB1
:1023400080030D4C04EB83039A6010BD10B5024668
:10235000094B1B68940001FA04F423400BB10120DF
:1023600000E0002010BD044A5268830001FA03F324
:102370001A43014B5A607047000002400020304968
:10238000086070474AF6AA202D49086070474CF64D
:10239000CC402B490860704710B50146294B0022FC
:1023A00045F25550264C206000BF2548C06800F01B
:1023B0000402581E031E01D0002AF6D10AB10020E3
:1023C00010BDC1F30B001E4C20610120F8E730B5B1
:1023D00002460B461B4C002145F25550184D286013
:1023E00000BF1748C06800F00101601E041E01D044
:1023F0000029F6D109B1002030BD11484360114CCD
:1024000000BF0F48C06800F00201601E041E01D02A
:102410000029F6D109B10020EEE7C2F30B00084D08
:10242000A8604AF6AA2028600120E5E70146044892
:10243000C068084008B1012070470020FCE7000098
:1024400000300040FFFF0F0010B504467349601ACA
:102450008C4220D006DCB4F1904F0AD07048204462
:10246000A0BB0FE0B0F5806F1ED0B0F5406F2ED14D
:1024700023E040F6112000F0D7F940F6112000F0DB
:10248000E1F925E040F6122000F0CEF940F61220E6
:1024900000F0D8F91CE040F6132000F0C5F940F632
:1024A000132000F0CFF913E040F6142000F0BCF93F
:1024B00040F6142000F0C6F90AE040F6162000F0BD
:1024C000B3F940F6162000F0BDF901E0FFE700BFC8
:1024D00000BF10BDF0B504460D4616462168E268FF
:1024E000002019E0012787401F409FB14FEA400CB0
:1024F000032707FA0CF7B943470005FA07F73943F2
:102500004FEA400C032707FA0CF7BA43470006FAD4
:1025100007F73A43471CB8B21028E3D32160E260C2
:10252000F0BDF0B50C461546012C03D146681E439C
:10253000466002E046689E434660826800210DE0E6
:1025400001268E401E403EB14F000326BE40B243DE
:102550004E0005FA06F632434E1CB1B21029EFD3F5
:102560008260F0BD81617047816270470AB181610C
:1025700000E081627047416170470246106908407F
:1025800008B1012070470020FCE70146086980B2CD
:10259000704702465069084008B10120704700208A
:1025A000FCE70146486980B27047F0B503461C6AF3
:1025B0005D6A00200DE00126864016403EB187008E
:1025C0000F26BE40B443860001FA06F63443461C8B
:1025D000B0B20828EFD3082011E00126864016404B
:1025E0005EB1A0F10806B7000F26BE40B543A0F1CA
:1025F0000806B60001FA06F63543461CB0B21028AC
:10260000EBD31C625D62F0BD4FF480320A43C261BD
:10261000C161C261C269C269704700000008004818
:1026200000FCFFB743490143434A11607047F0B5CE
:102630000B460021002400253F4E366806F4E06674
:10264000B6F5E06F02D100BF042526E03A4E3668A9
:1026500006F4E066B6F5C06F02D1012403251CE044
:10266000354E366806F4E066B6F5A06F02D1022456
:10267000022512E0304E366806F4E066B6F5806F4B
:1026800002D10324012508E02B4E366806F4E066EB
:10269000B6F5407F01D104240025C4F1040603FAF5
:1026A00006F1C5F104070F26FE401640314309012B
:1026B000224E315400F01F070126BE404711BF00D3
:1026C00007F1E027C7F80061F0BD00F01F0201210B
:1026D00091401B4A431142F823107047194A0A409F
:1026E0000243154B1B1F1A6070471349091D0968E7
:1026F0000143114A121D116070470F49091D0968F5
:1027000081430D4A121D11607047042808D14FF013
:10271000E021096941F004014FF0E022116107E076
:102720004FF0E021096921F004014FF0E02211612E
:10273000704700000000FA050CED00E000E400E046
:1027400080E100E080FFFF1FFD48006840F00100CD
:10275000FB49086000BFFA48006800F0020000284A
:10276000F9D0F7484068F7490840F54948600846FD
:102770004068F5490840F24948600846406820F43E
:102780004000486008460068F0490840EC4908608D
:102790000846C06A20F00F00C8620846006B40F28D
:1027A00043118843E64908630846406B20F0010066
:1027B0004863002088607047E14A02EB9011096885
:1027C00000F01F0301229A401143DD4B03EB9012EE
:1027D00011607047DA4A02EB9011096800F01F039C
:1027E00001229A409143D64B03EB9012116070473F
:1027F000D34A02EB9011096800F01F0301229A40AE
:102800001143CF4B03EB901211607047CC4A02EB9F
:102810009011096800F01F0301229A409143C84BB0
:1028200003EB901211607047C54A02EB90110968E2
:1028300000F01F0301229A401143C14B03EB901299
:1028400011607047BE4A02EB9011096800F01F0347
:1028500001229A409143BA4B03EB901211607047EA
:10286000B748006A40F48030B54908627047B44800
:10287000006A20F48030B2490862704701460020A7
:10288000AF4A506820F0030041EA0002AC4B5A60A6
:102890007047AB48406800F00C00704701460020CC
:1028A000A74A506820F0F00041EA0002A44B5A60A9
:1028B000704701460020A24A506820F4E06041EAD7
:1028C00000029F4B5A607047014600209C4A5068A6
:1028D00020F4605041EA0002994B5A6070479849D1
:1028E000496821F44041964A51601146096B21F430
:1028F00080711163052839D2DFE800F0030A142043
:102900002C008F49096B21F480718D4A11632EE0F0
:102910008B4949688A4A51601146096B41F48071BC
:10292000116324E08649496841F48041844A51603A
:102930001146096B41F48071116318E080494968C0
:1029400041F400417E4A51601146096B41F48071A7
:1029500011630CE07A49496841F44041784A51607A
:102960001146096B41F48071116300E000BF00BFA4
:1029700070477349496821F44001714A516011461A
:10298000496801435160704710B500226C4B5A688A
:1029900022F0774242EA00030B43694C636010BDAA
:1029A000674A52686A4B1A40654B5A601A46526829
:1029B00040EA01031A43624B5A6070476049096B51
:1029C00021F003015E4A11631146096B0143116353
:1029D00070475B49096B21F04001594A1163114668
:1029E000096B0143116370475549096A21F440712D
:1029F000534A11621146096A01431162704700216E
:102A00004F4AD16A21F00F0141EA00024C4BDA62D1
:102A100070474B49096A21F01801494A1162114671
:102A2000096A0143116270470146454A02EB911061
:102A3000006801F01F0301229A40104008B10120F4
:102A400070470020FCE73E48406A40F080703C49F7
:102A50004862704701463A488068084008B1012042
:102A600070470020FCE7364989680143344A916089
:102A70007047334989680143314A91607047304952
:102A8000896881432E4A91607047F0B5064600245C
:102A900000270025B6F5006F1DD005DC76B3102E9B
:102AA00009D0182E7BD169E0B6F5106F54D0B6F579
:102AB000506F74D132E004E01120FFF7B5FF0546F6
:102AC000641C15B9B4F5006FF6D11120FFF7ACFF07
:102AD00000B1012764E005E040F60100FFF7A4FF24
:102AE0000546641C1DB96FF07C408442F4D140F669
:102AF0000100FFF799FF00B1012751E004E0012038
:102B0000FFF792FF0546641C15B9B4F5A06FF6D126
:102B10000120FFF789FF00B1012741E005E040F601
:102B20000150FFF781FF0546641C15B9094884422E
:102B3000F5D140F60150FFF777FF00B101272FE0F4
:102B4000001002400C00FF08FFFFC0F7FFFFF2FE7D
:102B5000FFFFC2F7FFFF0F0005E040F60110FFF78F
:102B600063FF0546641C15B9F8488442F5D140F668
:102B70000110FFF759FF00B1012711E004E019200F
:102B8000FFF752FF0546641C15B9F0488442F6D1A0
:102B90001920FFF749FF00B1012701E0FFE700BF5F
:102BA00000BF3846F0BDEA4A02EB9011096800F018
:102BB0001F0301229A401143E54B03EB9012116071
:102BC0007047E34A02EB9011096800F01F030122ED
:102BD0009A409143DE4B03EB90121160704701461F
:102BE000B1F5006F18D005DC09B3102909D01829F8
:102BF00021D11FE0B1F5106F1BD0B1F5506F1AD184
:102C000016E0D34A1068126822F48032D04B1A6062
:102C100040F480221A600FE0CD4A106A126A22F056
:102C20000102CB4B1A6240F004021A6204E000BFBA
:102C300000BF00BF00E000BF00BF70470146B1F514
:102C4000006F18D005DC09B3102909D0182921D14B
:102C50001FE0B1F5106F1BD0B1F5506F1AD116E01F
:102C6000BB4A1068126822F48032B94B1A6020F413
:102C700080221A600FE0B64A106A126A22F001023E
:102C8000B34B1A6220F004021A6204E000BF00BFD6
:102C900000BF00E000BF00BF7047AD48006840F4CF
:102CA0000020AB4908607047A948006820F4002064
:102CB000A749086070470021A54A116821F0F80172
:102CC00041EAC002A24B1A6070470021A04A516B32
:102CD00021F0F80141EAC0029D4B5A6370479D48BC
:102CE000006800209A49C1F800019A4800689A4992
:102CF00008439749C1F80001704796493431096883
:102D000021F00701924AC2F834111146D1F834116A
:102D10000143C2F8341170478E493831096821F0F7
:102D200001018B4AC2F838111146D1F8381101431C
:102D3000C2F8381170472DE9F04F8FB004464FF0BC
:102D4000000CE0460020002200258146CDF8389096
:102D50000021CDF83490CDF83090CDF82C900023A0
:102D6000CDF82890CDF82490CDF8209000260027AB
:102D70000FF2E81999E8004CD9F80C90CDE905BE9E
:102D8000CDF810A0CDF81C900FF2D41ADAE9009A11
:102D9000CDE9029A0FF2C81ADAE9009ACDE9009A51
:102DA000DFF8AC91D9F80490C9F3810CBCF1000FA5
:102DB00006D0BCF1010F05D0BCF1020F3FD103E0FA
:102DC0006A4A3EE0694A3CE0DFF88491D9F8049011
:102DD000C9F38343DFF87891D9F80490C9F3C06947
:102DE000CDF82890DDF82890B9F1000F01D011330B
:102DF00000E09B1CDFF85891D9F80490C9F3004912
:102E0000CDF82490DDF82490B9F1000F12D0DFF84E
:102E10004091D9F82C9009F00F0909F10109CDF87A
:102E20002090DFF848A1DDF82090BAFBF9F909FB02
:102E300003F203E0DFF8389103FB09F201E04B4AAB
:102E400000BF00BFDFF80891D9F80490C9F303165A
:102E50000DF1100919F8067022FA07F5DFF8F09065
:102E6000D9F80490C9F302260DF1080919F8067083
:102E700025FA07F9CDF83890DFF8D490D9F8049006
:102E8000C9F3C2261DF8067025FA07F1072C5CD29B
:102E9000DFE804F00406080A0C47720010469FE0C1
:102EA00028469DE00E989BE0084699E0DFF8A09048
:102EB000D9F8309009F48079B9F5807F04D0DFF833
:102EC000B490CDF834902AE0DFF88490D9F80490DB
:102ED000C9F38138B8F1000F09D0B8F1010F0BD058
:102EE000B8F1020F0DD0B8F1030F16D110E04FEA80
:102EF0005109CDF8349011E04FEA9109CDF83490A2
:102F00000CE04FF00609B1FBF9F9CDF8349005E07B
:102F10004FEAD109CDF8349000E000BF00BF0D9812
:102F20005EE0DFF82C90D9F8309009F04009B9F153
:102F3000400F04D048F21209CDF8309003E04FF46E
:102F40000049CDF830900C984AE048E0FFFF0F00B0
:102F500000100240001102404D3C2B1A00000000FE
:102F600000000000010203040607080900127A00AD
:102F700000093D00809FD500DFF86C90D9F83090B3
:102F800009F00309B9F1000F01D10B9125E0DFF839
:102F90005890D9F8309009F00309B9F1010F01D127
:102FA0000B921AE0DFF84090D9F8309009F003094D
:102FB000B9F1020F04D14FF40049CDF82C900CE088
:102FC000DFF82490D9F8309009F00309B9F1030F24
:102FD00003D1DFF81890CDF82C900B9800E000BFDB
:102FE00000BF0FB0BDE8F08F0010024000127A0061
:102FF00010B50446FE49601A8C4217D00CDCB4F1BF
:10300000804F1CD0FB48204410B3B0F5406F28D04F
:10301000B0F5E05F52D12DE0B0F5A05F33D0B0F550
:10302000C05F39D0B0F5E05F48D13EE040F20B30F0
:10303000FFF7FAFB40F20B30FFF704FC3FE04FF4E0
:103040008060FFF7F1FB4FF48060FFF7FBFB36E099
:1030500040F20140FFF7E8FB40F20140FFF7F2FBCE
:103060002DE040F20440FFF7DFFB40F20440FFF7A1
:10307000E9FB24E04FF48160FFF7D6FB4FF4816059
:10308000FFF7E0FB1BE04FF44470FFF7CDFB4FF47C
:103090004470FFF7D7FB12E040F21130FFF7C4FB9A
:1030A00040F21130FFF7CEFB09E040F21230FFF79B
:1030B000BBFB40F21230FFF7C5FB00E000BF00BFD2
:1030C00010BD00210180418081804FF6FF71816039
:1030D0000021C180017370470A888262C44A90420D
:1030E00006D0B0F1804F03D0C24A524290420BD179
:1030F000026822F07002026002684B881A43026084
:1031000002688B881A4302608A68C262B84A904299
:1031100012D0B0F1804F0FD0B64A524290420BD03D
:10312000B54A904208D0B54A904205D0B44A904280
:1031300002D0B44A904207D1026822F44072026081
:103140000268CB881A430260A94A904208D0AB4A71
:10315000904205D0AA4A904202D0AA4A904201D198
:103160000A7B0263426942F00102426170470168D2
:1031700041F0010101607047016821F00101016027
:103180007047016841F0800101607047016821F0DB
:10319000800101607047016821F002010160704701
:1031A000016841F0020101607047026822F060028C
:1031B000026002680A4302607047016821F0100152
:1031C00001607047016841F0100101607047816241
:1031D0001AB9436943F001034361704701637047C3
:1031E000C16270474162704701460020486A7047DB
:1031F000014600208A6A90B2704721B9026842F005
:103200000802026005E0012903D1026822F00802E9
:103210000260704721B9026842F00402026005E0D2
:10322000012903D1026822F00402026070470129DB
:1032300004D1826842F00802826004E019B9826811
:1032400022F0080282607047C2680A43C260704779
:10325000C2688A43C26070470246D06800EA010330
:103260001069084010B10BB1012070470020FCE745
:10327000CA430261704702461069084008B1012044
:1032800070470020FCE7CA4302617047C2680A43E6
:10329000C2607047C2688A43C260704721B9426801
:1032A00042F00802426005E0012903D1426822F0A1
:1032B00008024260704710B5836C41F61F74A34347
:1032C0008364836C41EA02042343836410BD426932
:1032D0000A434261704700210160416001814181E0
:1032E000C160016141617047D1E900231A430B8934
:1032F0001A434B891A43CB681A430B691A434B692B
:103300001A4342647047416C41F4805141647047F4
:10331000416C21F4805141647047416C41F480411B
:1033200041647047416C21F4804141647047012938
:1033300004D1426C42F40042426403E0426C22F445
:10334000004242647047012904D1426842F0010200
:10335000426003E0426822F001024260704721B9F6
:10336000426822F00402426005E0012903D142686C
:1033700042F0040242607047002101608180C180F8
:10338000018141818181704710B531B1012953D04C
:1033900002297DD003297CD1D9E0036A23F00103FF
:1033A0000362836923F003038361036A1468234380
:1033B0000362036A23F002030362036AD48823438F
:1033C00003620B4B984208D00C4B984205D00C4B33
:1033D000984202D00B4B98422DD1036A23F004038C
:1033E0000362036A948823430362036A0CE00000CB
:1033F000002C014000FCFFBF0020004000400140C5
:10340000004401400048014023F008030362036ABE
:10341000148923430362436823F480734360436841
:10342000548923434360436823F400734360436833
:10343000948923434360AEE0036A23F010030362E0
:10344000836923F440738361036A146843EA0413B5
:103450000362036A23F020030362036AD48843EA09
:1034600004130362F84B984226D1036A23F0400309
:103470000362036A948843EA04130362036A23F035
:1034800080030362036A148943EA0413036201E0C0
:103490001FE07FE0436823F48063436043685489FE
:1034A00043EA84034360436823F400634360436852
:1034B000948943EA84034360E44B984208D143680B
:1034C00023F4806343604368548943EA8403436080
:1034D00061E0036A23F480730362C36923F003038A
:1034E000C361036A146843EA04230362036A23F492
:1034F00000730362036AD48843EA04230362D24B55
:10350000984223D1036A23F480630362036A948898
:1035100043EA04230362036A23F400630362036A39
:10352000148943EA04230362436823F4805343600D
:103530004368548943EA04134360436823F4005307
:1035400043604368948943EA0413436023E0036AB9
:1035500023F480530362C36923F44073C361036A95
:10356000146843EA04330362036A23F400530362DA
:10357000036AD48843EA04330362B34B984208D108
:10358000436823F4804343604368548943EA8413C7
:10359000436000E000BF00BF10BD31B101290CD075
:1035A000022913D0032922D118E0836923F0700384
:1035B00083618369134383611AE0836923F4E043E1
:1035C0008361836943EA0223836111E0C36923F0C5
:1035D0007003C361C3691343C36109E0C36923F482
:1035E000E043C361C36943EA0223C36100E000BF53
:1035F00000BF704731B1012906D0022906D0032946
:1036000008D105E0426306E0826304E0C26302E0A1
:10361000026400E000BF00BF704731B101290CD047
:10362000022913D0032922D118E0836923F008036B
:1036300083618369134383611AE0836923F4006320
:103640008361836943EA0223836111E0C36923F044
:103650000803C361C3691343C36109E0C36923F469
:103660000063C361C36943EA0223C36100E000BF92
:1036700000BF704731B101290CD0022913D00329B2
:1036800022D118E0836923F0040383618369134323
:1036900083611AE0836923F480638361836943EA69
:1036A0000223836111E0C36923F00403C361C3698A
:1036B0001343C36109E0C36923F48063C361C36931
:1036C00043EA0223C36100E000BF00BF704731B18D
:1036D00001290CD0022913D0032922D118E08369D3
:1036E00023F0800383618369134383611AE0836954
:1036F00023F400438361836943EA0223836111E079
:10370000C36923F08003C361C3691343C36109E044
:10371000C36923F40043C361C36943EA0223C3615D
:1037200000E000BF00BF704731B101290CD0022971
:1037300013D0032923D119E0036A23F002030362A3
:10374000036A134303621BE0036A23F0200303624E
:10375000036A43EA0213036212E0036A23F400736C
:103760000362036A43EA0223036209E0036A23F463
:1037700000530362036A43EA0233036200E000BFBE
:1037800000BF704731B101290CD0022913D00329A1
:1037900023D119E0036A23F008030362036A134389
:1037A00003621BE0036A23F080030362036A43EAB7
:1037B0000213036212E0036A23F400630362036AE4
:1037C00043EA0223036209E0036A23F4004303622D
:1037D000036A43EA0233036200E000BF00BF7047A0
:1037E00031B101290CD0022913D0032923D119E0CA
:1037F000036A23F001030362036A134303621BE0BD
:10380000036A23F010030362036A43EA02130362AC
:1038100012E0036A23F480730362036A43EA02231B
:10382000036209E0036A23F480530362036A43EAF4
:103830000233036200E000BF00BF704741B10129BD
:103840000ED002291ED114E0002C0140004001409E
:10385000036A23F004030362036A1343036212E062
:10386000036A23F040030362036A43EA021303621C
:1038700009E0036A23F480630362036A43EA0223D4
:10388000036200E000BF00BF7047002101800121FA
:10389000418000218180C180704731B101290CD065
:1038A000022913D0032922D118E0836923F00C03E5
:1038B00083618369134383611AE0836923F440635E
:1038C0008361836943EA0223836111E0C36923F0C2
:1038D0000C03C361C3691343C36109E0C36923F4E3
:1038E0004063C361C36943EA0223C36100E000BFD0
:1038F00000BF704770B504460E46154636B1012E1E
:1039000026D0022E48D0032E7DD168E0206A20F018
:1039100001002062206A20F00A002062206A2988C3
:1039200008432062A06920F00300A061A0696988B3
:103930000843A061A06920F0F000A061A069E988B7
:1039400040EA0110A061206A40F0010020626DE0B1
:10395000206A20F010002062206A20F0A00020627F
:10396000206A298840EA01102062A06920F4407092
:10397000A061A069698840EA0120A061A06920F4E3
:103980007040A061A069E98840EA0130A061206A26
:1039900040F01000206249E0206A20F4807020622C
:1039A000206A20F420602062206A298840EA0120F1
:1039B0002062E06920F00300E061E0696988084363
:1039C000E061E06920F0F000E061E069E98840EA48
:1039D0000110E061206A40F48070206226E0206AD5
:1039E00020F480502062206A20F420402062206A67
:1039F000298840EA01302062E06920F44070E061EB
:103A0000E069698800E010E040EA0120E061E069D7
:103A100020F47040E061E069E98840EA0130E0614B
:103A2000206A40F48050206200E000BF00BFAA88F6
:103A300031462046FFF731FF70BD0246002031B10C
:103A4000012906D0022906D0032908D105E0506BD0
:103A500006E0906B04E0D06B02E0106C00E000BF69
:103A600000BF70472DE9F04104460E461546002779
:103A7000B846288808B9022700E00027688801288E
:103A800002D14FF0020801E04FF00108002E4CD1A6
:103A9000206A20F001002062206A20F00A002062E3
:103AA000206A298808432062A06920F00300A061F1
:103AB000A06969880843A061A06920F0F000A061B6
:103AC000A069E98840EA0110A061206A40F0010085
:103AD0002062AA8800212046FFF7DFFE206A20F03E
:103AE00010002062206A20F0A0002062206A40EAD4
:103AF00007102062A06920F44070A061A06940EA2C
:103B00000820A061A06920F47040A061A069E98844
:103B100040EA0130A061206A40F010002062AA88CB
:103B200001212046FFF7B9FE4CE0206A20F010008A
:103B30002062206A20F0A0002062206A298840EAE2
:103B400001102062A06920F44070A061A06969881A
:103B500040EA0120A061A06920F47040A061A06942
:103B6000E98840EA0130A061206A40F0100020623C
:103B7000AA8801212046FFF790FE206A20F001006C
:103B80002062206A20F00A002062206A3843206206
:103B9000A06920F00300A061A06940EA0800A061CC
:103BA000A06920F0F000A061A069E98840EA011056
:103BB000A061206A40F001002062AA88002120460E
:103BC000FFF76BFEBDE8F08121B9426842F0800248
:103BD000426005E0012903D1426822F08002426080
:103BE0007047826822F07002826082680A438260B5
:103BF0007047426822F07002426042680A434260A5
:103C00007047826822F00702826082680A438260FD
:103C1000704721B9826842F08002826005E0012984
:103C200003D1826822F080028260704730B58468D8
:103C300024F43F448460846841EA02052C43846094
:103C4000846844EA0324846030BD30B5846824F07D
:103C50000704846084680C438460846940F20335FF
:103C6000AC438461846940F201152C438461046A89
:103C700024F00A040462046A24F0A0040462046AC2
:103C800042EA03152C43046230BD816821F007012C
:103C90008160704710B503460C4621461846FFF771
:103CA000A0FF986820F007009860986840F007002F
:103CB000986010BD70B504460E461546602E20D1A2
:103CC000206A20F010002062206A20F0A00020620C
:103CD000206A40EA05102062A06920F44070A061CB
:103CE000A06940F48070A061A06920F47040A061D8
:103CF000A06940EA0330A061206A40F01000206211
:103D00001EE0206A20F001002062206A20F00A00F4
:103D10002062206A28432062A06920F00300A0618D
:103D2000A06940F00100A061A06920F0F000A0614E
:103D3000A06940EA0310A061206A40F001002062FF
:103D400031462046FFF74DFFA06820F00700A06035
:103D5000A06840F00700A06070BDF0B504460D46B5
:103D600016461F463B46324629462046FFF75EFF71
:103D7000A06820F07700A060A06840F07700A06005
:103D8000F0BDF0B504460D4616461F463B4632468A
:103D900029462046FFF74AFFA06840F48040A06013
:103DA000F0BD816821F480418160704701657047F2
:103DB00010B50446F848204458B1B0F5744F11D1FD
:103DC00040F20E30FEF730FD40F20E30FEF73AFDC5
:103DD00009E040F21140FEF727FD40F21140FEF7E6
:103DE00031FD00E000BF00BF10BD2DE9F0470446E3
:103DF0000D460027B846B9460026E748204438B1AA
:103E0000B0F5744F09D10620FEF795FF074605E08F
:103E10000220FEF790FF074600E000BF00BF2068C9
:103E200000F4004070B1780000EB5500B0FBF5F6EF
:103E30004FF6F07006EA0008C6F3420948EA0900A6
:103E4000E0600CE007EB5500B0FBF5F64FF6F070C4
:103E500006EA000806F00F0948EA0900E060BDE83C
:103E6000F087026822F001020260026822F4C06258
:103E7000026002680A4302607047026822F0010291
:103E80000260026822F48052026002680A43026003
:103E90007047026822F001020260426822F4405238
:103EA000426042680A4342607047016841F0010184
:103EB00001607047016821F00101016070470268EC
:103EC00022F00802026002680A430260704702683A
:103ED00022F00402026002680A4302607047C1F3E4
:103EE0000802826270470146486AC0F308007047C2
:103EF000026822F001020260426822F4002242605D
:103F0000426801F400231A4342607047026822F0BD
:103F10000102026008292DD2DFE801F004091D0E1C
:103F200022132718426842F48022426023E042684C
:103F300022F4802242601EE0426822F40032426095
:103F400019E0426822F48032426014E0426822F4B0
:103F5000004242600FE0426842F4003242600AE0F0
:103F6000426842F48032426005E0426842F4004216
:103F7000426000E000BF00BF7047016821F001010E
:103F80000160816821F4805181607047016821F0EF
:103F900001010160816841F48051816070470268CD
:103FA00022F001020260026822F40042026002680C
:103FB0000A4302607047026822F0010202608268D0
:103FC00022F40062826082680A438260704741681E
:103FD00041F4801141607047416821F480114160D3
:103FE0007047426822F4C002426042680A4342605D
:103FF0007047016841F4005101607047016821F485
:10400000005101607047026822F0010202600268FC
:1040100022F40062026002680A430260704702688C
:1040200022F001020260426822F0100242604268FF
:1040300001F010031A4342607047026822F0010247
:104040000260426822F07F42426042684FF07F4344
:1040500003EA01631A4342607047416841F400017A
:1040600041607047416821F4000141607047426936
:1040700002F07F42426142690A434261704701682F
:1040800021F001010160416841F4804141607047C5
:10409000016821F001010160416821F48041416023
:1040A0007047026822F001020260426801F02003BA
:1040B0001A4342607047016821F001010160816884
:1040C00041F0080181607047016821F00101016041
:1040D000816821F0080181607047016821F00101C9
:1040E0000160416841F4006141607047016821F05E
:1040F00001010160416821F400614160704730B501
:10410000046824F001040460446824F4E06444601A
:10411000446801F480752C434460446802F40075DF
:104120002C434460446803F480652C43446030BDF4
:10413000016821F001010160816841F02001816086
:104140007047016821F001010160816821F02001C0
:1041500081607047016821F001010160816841F0D0
:10416000100181607047016821F0010101608168E0
:1041700021F0100181607047026822F001020260A4
:10418000026922F47F42026102694FF47F4303EA2D
:1041900001231A430261704700BCFFBF426922F04D
:1041A0007F42426142694FF07F4303EA01631A4351
:1041B00042617047026822F001020260826822F4C4
:1041C0006022826082684FF4602303EA41431A430D
:1041D00082607047016821F001010160816841F04F
:1041E000020181607047016821F00101016081686E
:1041F00021F0020181607047026822F00102026032
:10420000826801F004031A4382607047026822F05A
:1042100001020260026922F0FF02026102690A43A0
:1042200002617047026822F001020260826822F493
:104230008072826082680A4382607047026822F05E
:1042400001020260826822F40072826082680A437E
:1042500082607047016821F001010160816841F4CA
:10426000804181607047016821F00101016081682F
:1042700021F4804181607047026822F001020260EF
:10428000026822F07872026002684FF0787303EAE5
:1042900041531A4302607047026822F00102026033
:1042A000026822F4F812026002684FF4F81303EA7D
:1042B00001431A4302607047026822F00102026063
:1042C000826822F400428260826801F400431A434B
:1042D00082607047826822F04002826082680A43EE
:1042E00082607047826822F08002826082680A439E
:1042F00082607047016821F001010160816841F42A
:10430000005181607047016821F0010101608168FE
:1043100021F4005181607047016841F002010160A1
:104320007047016821F0020101607047026822F0C5
:1043300001020260826822F440128260826801F405
:1043400040131A438260704710B5024602EB911089
:10435000006801F01F040123A340184008B10120A8
:1043600010BD0020FCE710B5026A01F01F04012314
:10437000A3401A43026210BD10B5C1F389128258DE
:1043800001F01F040123A3401A43C1F38913C25053
:1043900010BD10B5C1F38912825801F01F0401232A
:1043A000A3409A43C1F38913C25010BD82690A43E6
:1043B0008261704770B5024600230024C1F3891062
:1043C000105801F01F060125B54000EA050302EB75
:1043D00091500068C1F304460125B54000EA050488
:1043E00014B10BB1012070BD0020FCE710B5026ACA
:1043F000C1F304440123A3401A43026210BD00002C
:104400000948804709480047FEE7FEE7FEE7FEE768
:10441000FEE7FEE7FEE7FEE7FEE7FEE704480549A4
:10442000054A064B70470000B344000869010008C4
:104430005801002058090020580500205805002088
:104440006D4840686C4948600846406848600846C6
:1044500040684860084640686849084066494860C6
:104460000846406866490843634948600846006852
:1044700040F08070086000BF5F48006800F0007086
:104480000028F9D05C48406820F003005A49486091
:104490000846406840F00200486000BF5648406847
:1044A00000F008000028F9D0704710B5FFF7C8FFEA
:1044B00010BD10B55048006840F001004E4908603A
:1044C00000BF4D48006800F002000028F9D04A48BB
:1044D00040684C49084048494860084640684A4995
:1044E0000840454948600846406820F4400048605C
:1044F00008460068454908403F4908600846C06AC8
:1045000020F00F00C8620846006B40F24311884358
:10451000394908630846406B20F0010048630020D9
:104520008860FFF7C2FF10BD2DE9FF430021002086
:10453000002200230024002500260FF2D409D9E927
:1045400001C8D9F80070D9F80C90CDE901C8CDF8B0
:104550000C900097284F7F68C7F3810121B1012992
:1045600008D0022932D10BE02D4FDFF8B8C0CCF8CB
:10457000007031E02A4FDFF8ACC0CCF800702BE0BF
:104580001D4F7F68C7F383401B4F7F68C7F3C0622E
:104590000AB1113000E0801C174F7F68C7F3004359
:1045A0006BB1154FFF6A07F00F077C1C1C4FB7FB60
:1045B000F4F74743DFF86CC0CCF8007005E01A4F01
:1045C0004743DFF860C0CCF8007005E0144FDFF817
:1045D00054C0CCF8007000BF00BF074F7F68C7F31E
:1045E00003151DF805600F4F3F68F740DFF834C032
:1045F000CCF80070BDE8FF8300100240FFFFC2F757
:10460000000004080C00FF08FFFFC0F7FFFFF2FEE8
:104610000000000000000000010203040607080972
:1046200000127A006400002000093D0070477047C6
:104630007047754600F02CF8AE46050069465346B3
:1046400020F00700854618B020B5FFF7E7FEBDE86B
:1046500020404FF000064FF000074FF000084FF0E9
:10466000000B21F00701AC46ACE8C009ACE8C0097A
:10467000ACE8C009ACE8C0098D46704710B50446E7
:10468000AFF300802046BDE81040FBF7B4BD00004A
:1046900000487047F800002001491820ABBEFEE733
:1046A00026000200704730B5039C072929D2DFE8B5
:1046B00001F028040A10161C22000025156018605D
:1046C0004542256022E045421560186000252560BE
:1046D0001CE04542156000251D60206016E00025A5
:1046E000156045421D60206010E0106045421D606D
:1046F000002525600AE0106000251D604542256008
:1047000004E0002515601D60256000BF00BF30BDBE
:1047100021F00042A2F16052B2F5801F01F0004387
:1047200028BFD2F17F6C0BD95FEA001C43EAC202BA
:1047300042EB507018BF704728BF20F0010070474F
:10474000B2F5801FBCBF184670474FEA410C1CF5FC
:10475000001F02D2084600F04ABF70B500F014FBFB
:1047600000000089FFF7F6BF4FF00040A0F5800081
:104770007047000010B591EA030F48BF83F0004373
:1047800000F19483841A71EB030C05D2121943EBE8
:104790000C03001B61EB0C01DFF824E14FEA11541C
:1047A000A4EB135C1EEA430F18BF9EEA445F73D06C
:1047B00023EA0E03DCF1200E21EA045143F48013B6
:1047C00032D322FA0CFE10EB0E0023FA0CFE41EB62
:1047D0000E01CCF1200E03FA0EFE10EB0E0051F18B
:1047E0000001B1F5801FCCF1200E32D201EB045153
:1047F00012FA0EF2BDE8104058BF7047401C38BF97
:104800005FEA420218BF7047002814BF20F0010081
:1048100041F100014FEA410313F5001F38BF704713
:10482000A1F1C04100F0FEBA012A43EB0302ACF152
:10483000200CDCF11F0E32BF4FF0000E23FA0CF3F8
:1048400010EB030041EB0451B4EB115FD0D0A1EBAE
:10485000045101F5801149085FEA300001EB045171
:104860000ED350F1000038BF12FA0EFE08D1BDE899
:104870001040C9E7401C38BF5FEA4202CAD1C3E713
:10488000BDE810404FEA410313F5001F38BF7047E1
:10489000A1F1C04100F0C6BA9EEA445F08D011EA17
:1048A0005E0FBDE8104004BF01F0004100207047DA
:1048B000BDE8104070B500F067FA00BF64FBBE3E73
:1048C0000000E0FF491058BFC1F140415B1058BFE4
:1048D000C3F140438B42EFF3008070472DE9C041A4
:1048E00030B4DFF8A0C23CEA111418BF3CEA13143C
:1048F00000F0EC8081EA03051CEA111444EAD57447
:1049000018BF1CEA131500F0C780A4EB05044FF094
:10491000004545EAC12145EAC32341EA505143EA33
:10492000525304F17F74994204F500344FEAC020D9
:104930004FEAC22208BF904200F09C804FEA136504
:104940000FF24016765D4FEA134506FB05F7C7F1F7
:10495000807706FB07F74FEAD737A7FB0368764255
:10496000C8F58038A7FB06CE38BFA8F1010807FBC1
:1049700008E64FF0000EA6FB028CE6FB03CEDCF14E
:10498000000CCEF1004E38BFAEF1010EA6FB0C5864
:104990004FF000074FF00005E6FB0E87A1FB08C6AD
:1049A000A0FB07CE16EB0E0645F10005E1FB0765FF
:1049B00015F1E04E7EBFA4F580345FEA46066D41F6
:1049C00016F1800745F100054FEA17274FEA066602
:1049D00047EA0567A6F1DE46B6F1805F4FEA152586
:1049E0001FD9384624F0010C05EBC471BCF1FE6FF1
:1049F00001EB0C1102D8F0BCBDE8008124425CBF81
:104A000001F5801E9EEAC47F02D4F0BCBDE800819F
:104A1000244238D4F0BCA1F1C041BDE8004100F00F
:104A200001BA4FEAD22242EA43524FEAD323A7FB0C
:104A300002864FEAD02040EA415007FB03661EEA97
:104A40000E0F4FEAD12105FB026658BFA6EB0056B8
:104A5000B6EB00564FEA520E4EEAC37E18EB0E0E2E
:104A600056EB530EBDD518EB02085E417F1C55F185
:104A70000005B6E74FF480154FF000074FF0000631
:104A80004FF00008ADE7F0BC4FF0000001F1C0416D
:104A900001F00041BDE8008111EA0C1F0CEA13157A
:104AA00000D00CE013EA0C1F00F025804FF000004E
:104AB000F0BC81EA030101F00041BDE80081F0BCD7
:104AC000BDE8004181EA030100F0ACB9F0BCBDE8EB
:104AD000004170B500F058F9097EFC3E00F007B8BF
:104AE00081EA03014FF0000001F00041704781EAC4
:104AF000030100F097B9F0BCBDE800414FF00000A1
:104B000021497047FFFDFBF9F7F5F4F2F0EEEDEB0C
:104B1000E9E8E6E4E3E1E0DEDDDBDAD8D7D5D4D3BB
:104B2000D1D0CFCDCCCBCAC8C7C6C5C4C2C1C0BF07
:104B3000BEBDBCBBBAB9B8B7B6B5B4B3B2B1B0AF0D
:104B4000AEADACABAAA9A8A8A7A6A5A4A3A3A2A1F1
:104B5000A09F9F9E9D9C9C9B9A99999897979695AC
:104B600095949393929191908F8F8E8E8D8C8C8B48
:104B70008B8A8989888887878685858484838382D0
:104B8000828181800000FF070000F87F10F0004262
:104B900048BF4042B0FA80F310FA03F10AD0C3F1E3
:104BA0001D0303F580634FEA415002EB035202EB11
:104BB000D12170474FF000007047000051EA030C0C
:104BC00017D41CF5801F58BFBCF5801F00F106806C
:104BD000994218BF704708BF9042704707D711F538
:104BE000801F58BF13F5801F19D49942704789421E
:104BF00070471CF5801F08D5BCF5801FF7D58B4288
:104C000018BF704708BF824270474FF4001C1CEB6E
:104C1000410F38BF1CEB430F01D28B42704770B578
:104C200000F0B2F8922449004FF000514FF0805349
:104C3000FFF748BEDFF848C170B51CEA111E1EBF61
:104C40001CEA13159EEA0C0F95EA0C0F00F06F801A
:104C500081EA030423EA4C134EEAD47E21EA4C1184
:104C600041F4801143F48013AE44A1FB024CA0FB3D
:104C70000365AEF17F7E361955EB0C05A1FB034CA5
:104C80004CF10003A0FB021C16EB0C06654153F12E
:104C90000003094218BF46F0010613F4007F0BD150
:104CA0004FEA03314FEA0530340341EA155140EA37
:104CB00016506FF003020AE04FEAC3214FEAC52005
:104CC000F40241EA555140EA56506FF0020202EBFD
:104CD0002E4201EB025585EACE710AD05FEA440C00
:104CE00018BF24F0004450F1000041F1000120EA17
:104CF000D47040F2FE7C624500D270BDA84214BF61
:104D00004FF080444FF04044002E08BF0024BEF115
:104D1000806FA8BFA1F1C041BDE8704080F28280E1
:104D20004FF0000001F1C04101F0004170479EEAE0
:104D30000C0F0CEA131518BF95EA0C0F06D04FF0B4
:104D4000000081EA030E0EF0004170BD00F01CF877
:104D50008900013E00F007B800F009B84FEA430CA3
:104D60005FEA5C5C08D081EA030100F05BB84FEABF
:104D7000410C5FEA5C5CF6D14FF0000001497047DE
:104D80000000FF070000F87F0EF1020E2EF0030E68
:104D90005EF8046B364205D4012A43EB030515F592
:104DA000001F12D8012841EB010C1CF5001F0CD884
:104DB0000ED14FEAD17C15F5001F0CEB4C0C0CF119
:104DC000020C08BF4CEBD37C04E04FF0080C01E070
:104DD0004FEAD37C0CEB4C0526FA05F606F00706E5
:104DE000B6F1040C06D20EEB860CBDE870404CF018
:104DF000010C6047DFE80CF0090B02024FF00041A4
:104E00004FF00000A1F5002170BD194610460128A1
:104E100051EB010418BFD4F5001484BF002001F049
:104E2000004170BD0808A0F500114FEA310170473C
:104E300053EA010C17D41CF5801F58BFBCF5801F26
:104E400000F106808B4218BF704708BF824270474E
:104E500007D713F5801F58BF11F5801F19D48B4257
:104E600070479B4270471CF5801F08D5BCF5801F1A
:104E7000F7D5994218BF704708BF904270474FF46A
:104E8000001C1CEB430F38BF1CEB410F01D29942B1
:104E900070470FB40CBC03BCFFF7C1BE10B591EA5C
:104EA000030F48BF83F000433FF56CAC841A71EBED
:104EB000030C07D212198CF0004C43EB0C03001BBF
:104EC00061EB0C01DFF8A4E14FEA1154A4EB135C91
:104ED0001EEA430F18BF9EEA445F00F0B08023EA49
:104EE0006E03524221EA0451C3EB6E0338BF5B1ECE
:104EF000DCF1200E25D322FA0CFE10EB0E0043FA53
:104F00000CFE41EB0E01CCF1200E03FA0EFE10EB6D
:104F10000E0051F10001CCF1200E29D412FA0EF24C
:104F200001EB0451BDE8104058BF7047401C1CBF46
:104F3000B2F1004F704700280CBF491C20F001005F
:104F4000704712EB020E43EB030218BF4FF0010E45
:104F50004EEA4202ACF1200CDCF11E0E54D943FAA9
:104F60000CFE10EB0E0051F1FF31CCF11E0ED5D529
:104F70000EF1010E12FA0EFE404141EB010101EB70
:104F8000445C5FEA5C5C10D910EBDE7001EB04510D
:104F900038BFBEF1004FBDE8104018BF7047002871
:104FA0000CBF491C20F00100704730D24FEAD42CCE
:104FB00011F5001124F400641BD0B1FA81F20B3A10
:104FC000A41AA41ED2F12003914030FA03F319432E
:104FD000904001EBCC71002C01EB0451BDE8104076
:104FE000A8BF704701F1C0414FF0000001F000413F
:104FF0007047B0FA80F310FA03F100D110BDE41A43
:10500000173C4805C90AE4E701EB045110BD4910FB
:1050100001EB0451BDE810404FEA300002E04FF0D0
:10502000000170474A0008BF0042F8D0B2F5001FE7
:1050300028BF704701F000414FF0000070479EEA22
:10504000445F07D011EA5E0FBDE8104004BF0021A5
:1050500000207047BDE8104070B5FFF795FE00BF17
:1050600040DFF63E83F00041104670470000E0FF4D
:1050700043004FEAD30C4FEA3C0C43401FBF4007AC
:105080000CF1605113F0FE4F70471CF0006F03D11C
:1050900000200CF0004170470CF0004343EA5070D0
:1050A00010B540EACC0000F05CFA00BF00000092AE
:1050B0004FEA0001FFF7B6BE4FF000414FF000008D
:1050C000A1F500217047000090EA010F48BF81F070
:1050D000004100F1CA82421A3CBF801A89184FEA87
:1050E000D0524FF07F4C1CEA410FA2EBD15318BFB6
:1050F0009CEA026F00F03B804FF0004C4CEA00202D
:105100004CEA012121FA03FC10EB0C0C1ED202F137
:10511000FF325FEA1C2040EBC25038BF70471CF0E2
:105120007F0F4FEA400C18BFBCF17F4F38BF70476C
:10513000C3F12003994008BF20F00100BCF17F4F6C
:1051400038BF7047A0F1C04000F051BA4FEA3C00B0
:10515000000A40EBC25028BF1CF0FF0F4FEA400C82
:10516000E6D018BFBCF17F4F38BF7047EAE79CEA32
:10517000026F05D010EA5C0F08BF00F000407047D6
:1051800010B500F0EEF900BF64FBBE3E401058BF02
:10519000C0F14040491058BFC1F140418142EFF396
:1051A000008070474FF47F0C1CEAD0121EBF1CEA2F
:1051B000D11392EA0C0F93EA0C0F00F0858090EA6D
:1051C000010F48BF42F4807240F4000C41F400002B
:1051D0002CF07F4120F07F4000B58142A2EB03021A
:1051E0000FF2081CACEB504EC0F100009EF800E03E
:1051F0004FEA4E0E00FB0EFC38BF49004FEA2C1C54
:1052000002F5FA020CFB0EF34FEACE1E4FEA112C08
:105210004FEAC1210EEB635E42EB22420EFB0CFC17
:105220004FEA1C5300FB03114FEA112C4FEA0131E6
:105230000EFB0CFC4FEADC4C00FB0C11C14228BFFA
:1052400009184CEB03335DF804EB10EB410143EB21
:10525000C250B2F57C0F38BF704729D512F0F00F5D
:105260001CBF00F1C04000F0004070470081828305
:105270008485868788898B8C8D8E8F919293959665
:1052800097999A9C9D9FA0A2A3A5A7A8AAACAEB0EF
:10529000B2B3B5B7B9BCBEC0C2C5C7C9CCCED1D4F4
:1052A000D7D9DCDFE2E6E9ECF0F3F7FAFE00000024
:1052B0004FEA400C0CF1807CBCF17E4F28BF704758
:1052C000B0F1C04000F093B990EA010F0CEAD1139D
:1052D00048BF42F48072624538BF634507D213F479
:1052E0007F0F16D080EA010000F00040704710B533
:1052F00000F037F9097EFC3E00F005B880EA0100B5
:1053000000F00040704780EA010000F0004000F02B
:105310006EB912F47F0F04BF0248704780EA0100A3
:1053200000F065B90000C07F41000B0ED3F19E0272
:1053300008D950F400034FEA032323FA02F048BFD0
:105340004042704710B500F00CF900BF499224802C
:10535000002070476FF0004282EA20007047000092
:10536000C10DD1F19E0206DB4FEA002343F000435A
:1053700023FA02F07047004207D54FEA4001B1F12D
:10538000FE4F02D24FF00000704710B500F0E9F870
:1053900049922480002070476FEA20007047000087
:1053A00010F0004148BF4042B0FA80F310FA03F217
:1053B000C3F19D030BD051EAC35101EB12205306F8
:1053C00038BF704700F1010008BF20F001007047AE
:1053D000B0FA80F310FA03F2C3F19D030AD0D905A5
:1053E00001EB1220530638BF704700F1010008BFDF
:1053F00020F001007047000050EA010C00F113801A
:105400001CF5000F58BFBCF5000F01D4884270474F
:1054100007D710F5000F58BF11F5000F15D48842BB
:105420007047894270471CF5000F04D5BCF5000F8A
:10543000F7D5814270474FF0807C1CEB400F38BF9E
:105440001CEB410F01D28142704710B500F089F882
:10545000922449004FF000504FF08051FFF796BE64
:105460004FF47F0C1CEAD0121EBF1CEAD11392EA43
:105470000C0F93EA0C0F00F0478090EA010F48BF31
:1054800042F480724FF0004C4CEA00204CEA0121BB
:1054900002EB0302A0FB0113A2F50002002918BFD2
:1054A00043F001035B0028BF4FEA330342EB224283
:1054B0005FEA132C4CEBC2502EBFBCEB436FB2F52E
:1054C0007C0F70474FEA036CBCF1004F08BF20F01F
:1054D0000100B2F57C0F38BF70470BD582F0FF0298
:1054E00012F5803FC8BF704700F1C040D8BF00F040
:1054F0000040704700F5000C5FEA4C0C48BF704755
:10550000B0F1C04000F073B890EA010F0CEAD1137B
:1055100048BF42F48072624538BF634504D280EAD6
:10552000010000F00040704710B500F01AF800BF0D
:105530008900013E00F007B800F009B85FEA410CAD
:105540005FEA1C6C08D080EA010000F050B85FEA06
:10555000400C5FEA1C6CF6D14FF00040A0F58000D3
:1055600070470EF1020E2EF0030E5EF8044B24423B
:1055700004D44FEA4102B2F17F4F11D84FEA400301
:10558000B3F17F4F0CD80ED14FEAD07CB2F17F4FF0
:105590000CEB4C0C0CF1020C08BF4CEBD17C04E082
:1055A0004FF0080C01E04FEAD17C0CEB4C0324FADD
:1055B00003F404F00704B4F1040C06D20EEB840CDF
:1055C000BDE810404CF0010C6047DFE80CF0070824
:1055D00002024FF00040A0F5800010BD08464200D6
:1055E00018BFD2F1807288BF00F0004010BDFF21CB
:1055F00041EAD050C005704751EA000C00F1138019
:105600001CF5000F58BFBCF5000F01D48142704754
:1056100007D711F5000F58BF10F5000F15D48142C0
:105620007047894270471CF5000F04D5BCF5000F88
:10563000F7D5884270474FF0807C1CEB410F38BF94
:105640001CEB400F01D28842704780EA010081EADA
:10565000000180EA0100FFF7F8BE000090EA010FA8
:1056600048BF81F000413FF536AD421A04D882F0C0
:105670000042A0EB020011444FEAD0524FF07F4CA1
:105680001CEA410FA2EBD15318BF9CEA026F4AD02B
:105690004FF0004C4CEA00204CEA012121FA03FCB7
:1056A000B0EB0C0C0FD412F0FE0F36D05FEA4C00BA
:1056B0001DD5001240EBC25038BF70471CF03F0FA1
:1056C00018BF70470BE0A2F101025FEA1C2040EB1B
:1056D000C25038BF70471CF07F0F18BF7047C3F12E
:1056E0002003994014BF401E20F00100704780083D
:1056F0004FEA122308BF7047B0FA80FCA2EB0C02FD
:10570000CCF1280C60FA0CF093EA122F04BF00EBE6
:10571000C25070474FEAC3707047130A5FEADC104B
:1057200008BF7047F6E79CEA026F04D010EA5C0FEE
:1057300008BF0020704710B5FFF713FF40DFF63EAB
:1057400081F0004070470000000080BF82EC6FBF16
:105750004FD160BF6E9652BFE02645BF267038BF5E
:10576000EB612CBFAFED20BF8A0616BFF6A00BBFC2
:105770009EB201BF7264F0BED02EDEBE32B5CCBE8A
:10578000E2E9BBBE68C0ABBE6A2D9CBE8B268DBE57
:105790009C447DBE043061BE52FF45BECFA32BBEEC
:1057A000E70F12BE1E6EF2BD521BC2BDDB1193BDD0
:1057B000617B4ABDB430E2BCD9BECEBB639A6D3CBE
:1057C00067C10E3D0A55603D211E983D1848BF3DFA
:1057D00041B4E53DE4B6053E9C3F183E47792A3E7C
:1057E000A1683C3E29124E3E257A5F3EA7A4703E3A
:1057F000C9CA803E4F28893EAE6C913E9A99993E27
:10580000B7B0A13E9CB3A93ECEA3B13EC982B93E7A
:10581000F951C13EC212C93E7FC6D03E816ED83E0C
:10582000130CE03E76A0E73EE82CEF3EA2B2F63E37
:10583000D832FE3E5CD7023FBA93063F194F0A3F6B
:10584000110A0E3F35C5113F1C81153F593E193FC6
:1058500085FD1C3F36BF203F0684243F904C283FE7
:1058600071192C3F4AEB2F3FBEC2333F75A0373F23
:105870001A853B3F5C713F3FF065433F9263473F72
:10588000016B4B3F067D4F3F709A533F15C4573F06
:10589000D6FA5B3F9D3F603F5D93643F17F7683FDB
:1058A000D86B6D3FB8F2713FE08C763F8A3B7B3F0F
:1058B0000000803FCF6D823FECE7843F1A6F873F47
:1058C0002B048A3FFDA78C3F7C5B8F3FA51F923F37
:1058D00088F5943F47DE973F18DB9A3F4BED9D3F9D
:1058E0004816A13F9557A43FD6B2A73FD429AB3F56
:1058F0007DBEAE3FEC72B23F6A49B63F7744BA3FD5
:10590000D066BE3F76B3C23FB52DC73F30D9CB3F3F
:10591000ECB9D03F5DD4D53F772DDB3FBDCAE03F2A
:105920005AB2E63F38EBEC3F207DF33FDE70FA3FA2
:1059300037E8004094D30440090109400D780D4038
:1059400043411240B166174010F41C4029F7224031
:105950004D802940F5A230408D7638408517414072
:10596000B7A84A4055555540965361406CE86E4083
:10597000ED6C7E401E2B8840C4A0924061039F4086
:1059800076EBAD40A037C040253AD740420FF540F6
:1059900030A70E41C14E2B4184695741B01192414D
:1059A000148AE54122E98942907E1EC384DE10C23A
:1059B000EBD4A1C14DCE5EC179D028C12A2A07C13E
:1059C000C957E0C04EE9BEC0467FA5C0A68391C0BE
:1059D000786181C0382668C00CD051C084C93EC0EF
:1059E000C5602EC0731220C06D7B13C07C4F08C0F1
:1059F00024A6FCBFF1ADEABF886ADABF539ECBBFD5
:105A0000C316BEBFF9A9B1BFF834A6BF4A9A9BBF5F
:105A1000F3C091BFA09388BF000080BFCA080003F5
:105A20000504010206000000485A0008000000209A
:105A300068000000A4010008B05A000868000020B7
:105A4000F0080000C0010008000000002C01000068
:105A500000000000000000000000000000002042E4
:105A60000000000000000000000000000000000036
:105A70000000000000000000000000000000000026
:105A800000000000D007000000000000000000003F
:105A90000000000000000000010000000000000005
:105AA00000000000000000000000000000A24A0406
:040000050800016985
:00000001FF
